:107000000C945A380C9477380C9477380C94773861
:107010000C9477380C9477380C9477380C94773834
:107020000C9477380C9477380C9477380C94773824
:107030000C9477380C9477380C9477380C94773814
:107040000C9477380C9477380C9477380C94773804
:107050000C9477380C9477380C9477380C947738F4
:107060000C9477380C9477380C9477380C947738E4
:107070000C9477380C9477380C9477380C947738D4
:107080000C9477380C9477380C9477380C947738C4
:107090000C9477380C9477380C9477380C947738B4
:1070A0000C9477380C9477380C9477380C947738A4
:1070B0000C94773811241FBECFEFD8E0DEBFCDBFD0
:1070C00013E0A0E0B1E0ECEFF8E702C005900D920C
:1070D000A436B107D9F723E0A4E6B3E001C01D92BE
:1070E000A636B207E1F70E94AE3B0C947C3C0C94B0
:1070F00000381092C00028E12093C1009093C50091
:107100008093C40086E08093C20008959091C000EF
:1071100095FFFCCF8093C60008958091C00087FF43
:10712000FCCF8091C60008950F931F93CF93DF93F8
:10713000EB018C011C161D063CF4F80181918F01B6
:107140000E9486382197F6CFDF91CF911F910F9142
:107150000895EF92FF920F931F93CF93DF937B01DC
:107160008C01C0E0D0E0CE15DF054CF40E948D38D4
:10717000F80181938F018A3011F02196F4CFCE016E
:10718000DF91CF911F910F91FF90EF90089587E6C7
:1071900090E00C947938CF92DF92EF92FF921F9398
:1071A000CF93DF93CDB7DEB7E2970FB6F894DEBF8B
:1071B0000FBECDBF182F7B016A01813081F050F0E6
:1071C000823091F0833009F041C06CE070E086E1DC
:1071D00091E012C06BE070E089E391E00DC068E0DF
:1071E00070E080E391E004C06CE070E083E291E045
:1071F0000E949438B601C7010E9494388AE00E9428
:107200008638133038F0133009F5B601C7010E94F3
:10721000A9381EC062E370E0CE0101960E94A93831
:107220007C01AC016BE071E0CE0101960E94293C2B
:10723000009771F0A70160E071E0CE0101960E9415
:10724000293C892B19F481E090E002C08FEF9FEF79
:10725000E2960FB6F894DEBF0FBECDBFDF91CF919F
:107260001F91FF90EF90DF90CF900895982F8FEBB4
:10727000890F8A31B0F08FE9890F8A3110F489EBD8
:1072800005C080ED890F8A3018F484E0890F0895D5
:107290009B3221F09F3221F080E008958EE3089523
:1072A0008FE308954F925F926F927F928F929F9299
:1072B000AF92BF92CF92DF92EF92FF920F931F9304
:1072C000CF93DF936C017B018A01CB0183709927F7
:1072D000892B09F058C0E601CE018C199D098E1545
:1072E0009F0508F04EC088810E943639882E912C67
:1072F000A12CB12C26E0880C991CAA1CBB1C2A9539
:10730000D1F789810E943639882A2401350136E077
:10731000440C551C661C771C3A95D1F78A818D3335
:1073200099F00E94363953014201882A96E0880C70
:10733000991CAA1CBB1C9A95D1F78B818D3359F0EF
:107340000E943639882A07C08CE0880C991CAA1C38
:10735000BB1C8A95D1F7F801A0828A818D3319F47C
:107360000F5F1F4F0CC0F80191828B818D3319F490
:107370000E5F1F4F04C0F80182820D5F1F4F2496DD
:10738000ABCF80E001C081E0DF91CF911F910F91E1
:10739000FF90EF90DF90CF90BF90AF909F908F9035
:1073A0007F906F905F904F900895CF93DF93CDB70C
:1073B000DEB7E8970FB6F894DEBF0FBECDBFBC01B5
:1073C00099E0E8E1F3E0DE01119601900D929A95C3
:1073D000E1F7FE013A968FE1DF011D928A95E9F708
:1073E000CE0101960E941E3C60E473E0CE0101963E
:1073F0000E941E3C0E94C73840E050E060E070E010
:1074000080E00E94CB3847E250E0BE016F5F7F4FC3
:1074100081E00E94CB3845E050E06EE573E082E009
:107420000E94CB3840E150E0BE01675D7F4F83E0B2
:107430000E94CB38E9E2F0E0EC0FFD1F8E0F9F1F9A
:10744000DC011C92CF010E94003CE8960FB6F89434
:10745000DEBF0FBECDBFDF91CF910895AF92BF9237
:10746000CF92DF92EF92FF920F931F93CF93DF9310
:10747000CDB7DEB7C95ED1090FB6F894DEBF0FBE37
:10748000CDBF5C016B017A01122F99E0E8E1F3E0D6
:10749000DE01A255BF4F01900D929A95E1F7EEEAF9
:1074A000F0E0EC0FFD1F39968FE1DF011D928A9508
:1074B000E9F7B501CE0182559F4F0E941E3C6EE454
:1074C00073E0CE0182559F4F0E941E3C8BE590E0F9
:1074D0009A838983FE0133968BEADF011D928A9598
:1074E000E9F78FEF84B90E94C73881E085B940E0A1
:1074F00050E060E070E080E00E94CB3882E085B927
:1075000047E250E0BE0162557F4F81E00E94CB38D8
:1075100084E085B94AE0BE0160527F4FC6010E94F7
:10752000373C4AE0BE016A527F4F812F90E00E94B3
:10753000373CBE0160527F4F8E010F5F1F4FC80165
:107540000E941E3C6AE573E0C8010E941E3CBE0119
:107550006A527F4FC8010E941E3C6CE573E0C8016F
:107560000E941E3CF80101900020E9F73197AF011D
:10757000401B510BB80182E00E94CB3888E085B9EE
:107580004DEA50E0B80183E00E94CB3820E125B9F4
:10759000A701BC01C8010E94523980E0C751DF4FEA
:1075A0000FB6F894DEBF0FBECDBFDF91CF911F9114
:1075B0000F91FF90EF90DF90CF90BF90AF90089524
:1075C000AF92BF92EF92FF920F931F93CF93DF93EF
:1075D0008A013FB7F894F999FECF7B0143E0FB01A4
:1075E00040935700E89507B600FCFDCFD801C22FA5
:1075F000D0E051E0E01AF10AFD01E01BF10BEC17BD
:10760000FD07A0F42C91F701EA0FFB1F11964C9196
:107610001197A42EB12CBA2CAA24A20EB11C0501DC
:1076200050935700E89511241296E6CF25E0FB0110
:1076300020935700E89507B600FCFDCF81E18093C9
:107640005700E8953FBFDF91CF911F910F91FF90B9
:10765000EF90BF90AF9008952F923F924F925F921C
:107660006F927F928F929F92AF92BF92CF92DF9252
:10767000EF92FF920F931F93CF93DF93CDB7DEB7B7
:10768000C058D1090FB6F894DEBF0FBECDBF5C0164
:10769000412C92E0592E612C712CE12CF12C4E01E1
:1076A00081E8880E911C8E010F5F1F4F6701180142
:1076B0000815190551F0C6010E94743CF801819328
:1076C0008F01FFEFCF1ADF0AF3CF20E8A101C3013A
:1076D000B2010E94E03A80E8E80EF11CE0E84E0EAC
:1076E000511C611C711CE114F4E0FF06E1F604E991
:1076F00011E0C12C86E0D82EE12CF12C20E8A80165
:10770000C701B6010E94E03A80E8C80ED11CE11C16
:10771000F11C00581F4FC114E8E0DE06E104F1043B
:1077200069F7C5010E940001C058DF4F0FB6F894F9
:10773000DEBF0FBECDBFDF91CF911F910F91FF90A4
:10774000EF90DF90CF90BF90AF909F908F907F9001
:107750006F905F904F903F902F900895CF92DF925F
:10776000EF92FF920F931F93CF93DF93CDB7DEB7C6
:10777000C059D1090FB6F894DEBF0FBECDBFCE0100
:107780008F579F4F0E942C3BCE018F579F4F0E94D7
:10779000D5398C01C12CD12C760110161106D4F4E8
:1077A00020E8AE014F5F5F4FB601CE018F579F4F6C
:1077B0000E942E3A20E8AE014F5F5F4FC701B6012D
:1077C0000E94E03A0150110980E8C80ED11CE11C6A
:1077D000F11CE3CF15B814B80C94000080E090E0E1
:1077E000C057DF4F0FB6F894DEBF0FBECDBFDF919D
:1077F000CF911F910F91FF90EF90DF90CF90089560
:10780000FC0188279927E89421912032E9F3293057
:1078100010F02E30C8F32B3241F02D3239F4689439
:1078200004C00E94423C820F911D219120532A30B6
:10783000C0F31EF4909581959F4F0895FB01DC01E4
:107840000D900020E9F7119701900D920020E1F7CB
:107850000895FB01DC014150504030F08D910190C2
:10786000801919F40020B9F7881B990B0895BB27DC
:107870004A3031F4992322F4BDE2909581959F4FCF
:107880000C944B3C7AE0979F902D879F802D910D13
:1078900011240895BB27FB015527AA27880F991F9C
:1078A000AA1FA41710F0A41B83955051B9F7A05D2F
:1078B000AA3308F0A95DA193009779F7B111B193AC
:1078C0001192CB010C94643CDC01FC01672F719197
:1078D0007723E1F7329704C07C916D9370836291B6
:1078E000AE17BF07C8F30895F999FECF92BD81BDC9
:0C78F000F89A992780B50895F894FFCF0E
:1078FC00224661696C757265220A002253756363B6
:10790C00657373220A004553503A7472616E736D3D
:10791C006974004553503A7061796C6F61643A0038
:10792C004553503A75726C3A004553503A636F6E3A
:10793C006E65637400536572766572204950204100
:10794C006464723A002A206F6E202E2C23206F6EF6
:10795C0020656E6400456E74657220495020416448
:10796C006472657373005769466920426F6F746C5B
:10797C006F61646572006E74756141626F617264EF
:10798C005F473100E0F48830910509F450C068F489
:10799C008230910509F447C08430910509F445C043
:1079AC00019709F046C08AE2089580329105A9F149
:1079BC0080349105A1F14097E1F587E30895811595
:1079CC0028E0920741F168F4811522E09207F9F062
:1079DC00811524E09207E9F08115914051F584E37B
:1079EC000895811520E2920771F020F481159041E1
:1079FC0011F11FC0811520E4920739F081159048D0
:107A0C00C1F481E4089582E3089583E3089585E346
:107A1C00089586E3089582E4089588E3089589E340
:107A2C00089583E4089580E3089583E2089584E43F
:107A3C00089580E0089581E3089561E070E001C04D
:107A4C00660F8A95EAF7609583E00E94220281E036
:107A5C000E94330290E08095909524E0959587954F
:107A6C002A95E1F78F7008951F93CF93DF9383E0EE
:107A7C000E945B03C82F82E00E945B03D0E0DC2FE6
:107A8C00CC27D295D07FD82B81E00E945B03182F96
:107A9C0080E00E945B0340E1149F90011124AE0131
:107AAC00482BCA01822B932BDF91CF911F91089504
:107ABC00CF93DF930E947203EC012FEF86E791E0E6
:107ACC00215080409040E1F700C000000E947203FA
:107ADC008C239D232091E0013091E101209530957C
:107AEC009093E1018093E00182239323DF91CF9166
:107AFC000C94E7020E9472030C94E7020E94B801F6
:107B0C0060EF87E00C94220222687474703A2F2F75
:107B1C000000000000000000000000000000000059
:107B2C000000000000000000000000000000000049
:107B3C003A353030302F6E706167657322003A35FC
:107B4C003030302F64617461220020005D005B31A5
:047B5C0032385D005E
:040000030000700089
:00000001FF
